:0400000051EF00F0CC
:060008004C82C6EF31F04E
:100018004C80D8CF11F0E8CF12F0E0CF13F0D8CF52
:1000280040F03F6EE0CF3EF0A4A21DEF00F01FEFBE
:1000380000F023EF00F0A5EC27F018EF00F0B7A2CE
:1000480028EF00F02AEF00F02EEF00F064EC28F023
:1000580018EF00F09EA033EF00F035EF00F039EF15
:1000680000F0A5EC31F018EF00F0A1A23EEF00F08F
:1000780040EF00F044EF00F0C3EC31F018EF00F06F
:1000880040C0D8FF3F503EC0E0FF13C0E0FF12C0A1
:0E009800E8FF11C0D8FF4C901000B6EF2EF01C
:1010000000A9AAAA3E98CA4CBE0DF5113E4712DAB5
:10101000BD25AC7C3D6937AC3168212233B40F1457
:10102000336821A2333863ED3EDA0F493F5E987B87
:101030003FDA0FC93F2EBDBBB3DB0F494020656CC3
:10104000617073656454696D65203D20252E32669C
:10105000200900204779726F416E676C6558203D0A
:1010600020252E3266200900204779726F416E6775
:101070006C6559203D20252E3266200900206163D1
:1010800063416E676C6559203D20252E3266200D28
:101090000A0020616363416E676C6558203D20251E
:1010A0002E3266200900207069746368203D202577
:1010B0002E326620090020726F6C6C203D20252E98
:1010C0003266200900494E46004E414E00696E6668
:0910D000006E616E006C66000008
:1010DA00000E0001D16F000ED06FACC0E2F0ADC0BF
:1010EA00E3F0AEC0E4F0AFC0E5F0E5BF81EF08F091
:1010FA007FEF08F097EF08F0000ED16F010ED06F66
:10110A00E2C014F0E3C015F0E4C016F0E5C017F031
:10111A00FFEC30F014C0E2F015C0E3F016C0E4F0C2
:10112A0017C0E5F0000E0001E96F000EE86F38C045
:10113A00D4F039C0D5F0D051D111D8A4A7EF08F016
:10114A00A9EF08F0B0EF08F03CA4AEEF08F0B0EF5A
:10115A0008F0CAEF08F0D051D111D8A4B7EF08F0BF
:10116A00B9EF08F0BFEF08F0000EB76F2B0EB66F9D
:10117A00C3EF08F0000EB76F2D0EB66FB6C000F2BF
:10118A00E84BE92BD407D8A0D507E2C014F0E3C096
:10119A0015F0E4C016F0E5C017F0B7EC2AF0140415
:1011AA001510D8A4DBEF08F0DDEF08F034EF09F0F2
:1011BA00BF0E0001B16FFF0EB26FB051B36FB46BC7
:1011CA00B151B327B251B423B4510AE11A0EB35D37
:1011DA00D8A0F2EF08F0F5EF08F0010EF6EF08F0EC
:1011EA00000EB86FB96BB851B911D8B4FFEF08F057
:1011FA0001EF09F00FEF09F0000EE825146E020E58
:10120A00E921156EC50E166E100E176EBCEC2FF086
:10121A001BEF09F0000EE825146E020EE921156E87
:10122A00CD0E166E100E176EBCEC2FF00001FD0EDF
:10123A00D427FF0ED523AAC024F0ABC025F0000E98
:10124A00266E020E276ED4C028F0D5C029F06EECA7
:10125A002CF024C0AAF025C0ABF09CEF0EF0E2C03F
:10126A0014F0E3C015F0E4C016F0E5C017F0B7ECCF
:10127A002AF014501510D8A445EF09F047EF09F0E9
:10128A0087EF09F0BF0E0001B16FFF0EB26FB051C8
:10129A00B36FB46BB151B327B251B423B4510AE15D
:1012AA001A0EB35DD8A05CEF09F05FEF09F0010EEA
:1012BA0060EF09F0000EBA6FBB6BBA51BB11D8B41C
:1012CA0069EF09F06BEF09F079EF09F0000EE825F4
:1012DA00146E020EE921156EC90E166E100E176EE7
:1012EA00BCEC2FF01BEF09F0000EE825146E020E7D
:1012FA00E921156ED10E166E100E176EBCEC2FF08A
:10130A001BEF09F0000E0001EA6F000EEB6F800E72
:10131A00EC6F3F0EED6F000EE76F000EE66FE2C056
:10132A0014F0E3C015F0E4C016F0E5C017F0000EA3
:10133A00186E000E196E000E1A6E000E1B6E27EC48
:10134A002DF0D8B0ABEF09F0ADEF09F031EF0AF0AC
:10135A00CCEF09F0EAC022F0EBC023F0ECC024F095
:10136A00EDC025F0000E266E000E276E200E286EA8
:10137A00410E296E0AEC21F022C0EAF023C0EBF0FC
:10138A0024C0ECF025C0EDF00001E64BE72BE2C0EB
:10139A002EF0E3C02FF0E4C030F0E5C031F0000ECB
:1013AA00266E000E276E200E286E410E296EEAC0A8
:1013BA0022F0EBC023F0ECC024F0EDC025F00AECDB
:1013CA0021F022C032F023C033F024C034F025C00B
:1013DA0035F034EC2AF0D8B0F5EF09F0F7EF09F060
:1013EA00AFEF09F018EF0AF0EAC07DF0EBC07EF02B
:1013FA00ECC07FF0EDC080F0000E0001816F000E9E
:10140A00826F200E836F410E846F20EC23F07DC023
:10141A00EAF07EC0EBF07FC0ECF080C0EDF0000196
:10142A00E607D8A0E707E2C02EF0E3C02FF0E4C039
:10143A0030F0E5C031F0EAC032F0EBC033F0ECC076
:10144A0034F0EDC035F034EC2AF0D8A02FEF0AF0D2
:10145A0031EF0AF0F9EF09F0B0C01AF01B6A8CEC10
:10146A002FF01A500001D76FD7C0D6F0670ED719E0
:10147A00D8A442EF0AF044EF0AF06AEF0AF03A50B1
:10148A003B10D8A44BEF0AF04DEF0AF051EF0AF0E7
:10149A00000E3B6E010E3A6E3BBE5EEF0AF03B5009
:1014AA0006E13A04D8B05CEF0AF05EEF0AF064EFA6
:1014BA000AF0000ED36F060ED26F73EF0AF03AC02D
:1014CA00D2F03BC0D3F073EF0AF03BBE6FEF0AF0E5
:1014DA0071EF0AF05EEF0AF064EF0AF0670ED719AF
:1014EA00D8A47AEF0AF07CEF0AF0ABEF0AF0E7AF84
:1014FA008AEF0AF0FC0EE65DFF0EE759D8A088EFE6
:10150A000AF08AEF0AF0A9EF0AF0FF0EB16FFF0E98
:10151A00B26FD2C0B3F0D3C0B4F0B151B327B25155
:10152A00B423E651B35DB451800AB56FE751800A1E
:10153A00B559D8A0A3EF0AF0A5EF0AF0A9EF0AF06F
:10154A00660ED66FABEF0AF0650ED66FD2C0C8F042
:10155A00D3C0C9F0670ED719D8A4B6EF0AF0B8EF0E
:10156A000AF0C8EF0AF0660ED619D8A4BFEF0AF03F
:10157A00C1EF0AF0CAEF0AF0E7BFC8EF0AF0C6EFF8
:10158A000AF0CAEF0AF0C84BC92B660ED619D8A4BE
:10159A00D1EF0AF0D3EF0AF0F3EF0AF0E7BFDAEF80
:1015AA000AF0D8EF0AF0E6EF0AF0000EEA6F000E32
:1015BA00EB6F800EEC6F3F0EED6F000EE76F000EC3
:1015CA00E66F670ED719D8B4EDEF0AF0EFEF0AF01D
:1015DA00F3EF0AF0E651C827E751C923000EE16F7D
:1015EA00000EE06FE2C0D8F0E3C0D9F0E4C0DAF050
:1015FA00E5C0DBF0EAC0CAF0EBC0CBF0ECC0CCF03F
:10160A00EDC0CDF085EF0BF0D8C07DF0D9C07EF0EB
:10161A00DAC07FF0DBC080F0EAC081F0EBC082F074
:10162A00ECC083F0EDC084F020EC23F07DC096F08E
:10163A007EC097F07FC098F080C099F0EEEC24F05D
:10164A0096C0DCF097C0DDF098C0DEF099C0DFF0FC
:10165A00DCC07DF0DDC07EF0DEC07FF0DFC080F050
:10166A00B0EC29F07DC0CEF07EC0CFF0D8C075F0C6
:10167A00D9C076F0DAC077F0DBC078F0EAC026F09D
:10168A00EBC027F0ECC028F0EDC029F0DCC022F056
:10169A00DDC023F0DEC024F0DFC025F00AEC21F023
:1016AA0022C079F023C07AF024C07BF025C07CF0F8
:1016BA003EEC30F075C0D8F076C0D9F077C0DAF0D9
:1016CA0078C0DBF0EAC07DF0EBC07EF0ECC07FF0C2
:1016DA00EDC080F0000E0001816F000E826F200EB7
:1016EA00836F410E846F20EC23F07DC0EAF07EC048
:1016FA00EBF07FC0ECF080C0EDF00001E04BE12B95
:10170A00C851E05DE151800AB16FC951800AB159EF
:10171A00D8A092EF0BF094EF0BF009EF0BF0EAC0B0
:10172A0022F0EBC023F0ECC024F0EDC025F0000E4F
:10173A00266E000E276EA00E286E400E296E0AEC49
:10174A0021F022C0DCF023C0DDF024C0DEF025C089
:10175A00DFF0D8C02EF0D9C02FF0DAC030F0DBC0ED
:10176A0031F0DCC032F0DDC033F0DEC034F0DFC06F
:10177A0035F034EC2AF0D8B0C5EF0BF0C7EF0BF018
:10178A00D2EF0BF0000E0001DC6F000EDD6F000ED1
:10179A00DE6F000EDF6FFBEF0BF0D8C014F0D9C07C
:1017AA0015F0DAC016F0DBC017F0DCC018F0DDC0A7
:1017BA0019F0DEC01AF0DFC01BF027EC2DF0D8A01C
:1017CA00E9EF0BF0EBEF0BF0FBEF0BF00001CEB102
:1017DA00F1EF0BF0F3EF0BF0FBEF0BF0000EDC6F09
:1017EA00000EDD6F000EDE6F000EDF6FE2C02EF01E
:1017FA00E3C02FF0E4C030F0E5C031F0DCC032F0D5
:10180A00DDC033F0DEC034F0DFC035F057EC1CF039
:10181A002EC0D8F02FC0D9F030C0DAF031C0DBF0DA
:10182A00D8C02EF0D9C02FF0DAC030F0DBC031F0CA
:10183A00000E266E000E276E200E286E410E296EAF
:10184A00CAC022F0CBC023F0CCC024F0CDC025F012
:10185A000AEC21F022C032F023C033F024C034F065
:10186A0025C035F034EC2AF0D8A03EEF0CF040EF5A
:10187A000CF069EF0CF00001E64BE72BCAC022F02E
:10188A00CBC023F0CCC024F0CDC025F0000E266ECC
:10189A00000E276E200E286E410E296E0AEC21F0EA
:1018AA0022C0CAF023C0CBF024C0CCF025C0CDF0B2
:1018BA00660E0001D619D8A465EF0CF067EF0CF09C
:1018CA0069EF0CF0C84BC92BCAC0EAF0CBC0EBF0E9
:1018DA00CCC0ECF0CDC0EDF0650E0001D619D8B43D
:1018EA0079EF0CF07BEF0CF081EF0CF0E6C0C6F05C
:1018FA00E7C0C7F085EF0CF0000EC76F000EC66F89
:10190A00000EC56F000EC46F000EC36F000EC26FCB
:10191A00000EE16F000EE06F82EF0DF0D8C07DF08F
:10192A00D9C07EF0DAC07FF0DBC080F0EAC081F077
:10193A00EBC082F0ECC083F0EDC084F020EC23F021
:10194A007DC096F07EC097F07FC098F080C099F075
:10195A00EEEC24F096C0DCF097C0DDF098C0DEF023
:10196A0099C0DFF0DCC07DF0DDC07EF0DEC07FF024
:10197A00DFC080F0B0EC29F07DC0CEF07EC0CFF0A1
:10198A003CB8CAEF0CF0CCEF0CF0EAEF0CF0000117
:10199A00CE51CF11D8A4D4EF0CF0D6EF0CF0EAEF69
:1019AA000CF0670ED719D8A4DDEF0CF0DFEF0CF0BE
:1019BA00EAEF0CF0C7BFE6EF0CF0E4EF0CF0EAEF49
:1019CA000CF0C24BC32B35EF0DF00001C451C51109
:1019DA00D8A4F2EF0CF0F4EF0CF01EEF0DF0C7BF35
:1019EA00FBEF0CF0F9EF0CF01EEF0DF0000EE825FE
:1019FA00D96E020EE921DA6E2E0EDF6EE84BE92B64
:101A0A00D407D8A0D507000EC56F010EC46F1EEF0C
:101A1A000DF0000EE825D96E020EE921DA6E300EBD
:101A2A00DF6EE84BE92BD407D8A0D507C207D8A0A8
:101A3A00C307C251C311D8A425EF0DF027EF0DF04B
:101A4A000EEF0DF0000EE825D96E020EE921DA6ECE
:101A5A00CE51300FDF6EE84BE92BD407D8A0D5075B
:101A6A00D8C075F0D9C076F0DAC077F0DBC078F06C
:101A7A00EAC026F0EBC027F0ECC028F0EDC029F050
:101A8A00DCC022F0DDC023F0DEC024F0DFC025F088
:101A9A000AEC21F022C079F023C07AF024C07BF04E
:101AAA0025C07CF03EEC30F075C0D8F076C0D9F095
:101ABA0077C0DAF078C0DBF0EAC07DF0EBC07EF0E8
:101ACA00ECC07FF0EDC080F0000E0001816F000EC7
:101ADA00826F200E836F410E846F20EC23F07DC04D
:101AEA00EAF07EC0EBF07FC0ECF080C0EDF00001C0
:101AFA00C607D8A0C707E04BE12BC851E05DE1510A
:101B0A00800AB16FC951800AB159D8B08FEF0DF070
:101B1A0091EF0DF09FEF0DF0E9BF9DEF0DF0E95148
:101B2A0009E14B0EE85DD8A09DEF0DF09FEF0DF097
:101B3A0093EF0CF0C451C511D8A4A6EF0DF0A8EF8D
:101B4A000DF0B9EF0DF03CA8ADEF0DF0AFEF0DF0D1
:101B5A00B9EF0DF0000EE825D96E020EE921DA6E12
:101B6A002E0EDF6EE84BE92B000EE825D96E020E29
:101B7A00E921DA6E000EDF6E650ED619D8A4C8EF19
:101B8A000DF0CAEF0DF020EF09F0000EE16F4F0ED5
:101B9A00E06F000EE025D96E020EE121DA6E000E2A
:101BAA00DF6E000ED16F000ED06FE7BFE1EF0DF0D0
:101BBA00DFEF0DF0E9EF0DF0000ED16F010ED06FDF
:101BCA00E66DE71FD8B0E72B000ED36F020ED26F77
:101BDA001AEF0EF0E007D8A0E107000EE025D96E53
:101BEA00020EE121DA6EE6C014F0E7C015F0000E2D
:101BFA00176E0A0E166ECFEC2CF01450300FDF6EF3
:101C0A00E6C014F0E7C015F0000E176E0A0E166E45
:101C1A000CEC2CF014C0E6F015C0E7F00001D20776
:101C2A00D8A0D307D407D8A0D507E651E711D8A47E
:101C3A0021EF0EF023EF0EF0EFEF0DF0D3BF30EFF0
:101C4A000EF0D35106E1D205D8B02EEF0EF030EFE8
:101C5A000EF0EFEF0DF0E007D8A0E107D051D11157
:101C6A00D8A43AEF0EF03CEF0EF042EF0EF0000E61
:101C7A00BD6F2B0EBC6F46EF0EF0000EBD6F2D0E22
:101C8A00BC6F000EE025D96E020EE121DA6EBCC0EF
:101C9A00DFFFD407D8A0D507E007D8A0E107BF0E19
:101CAA00B16FFF0EB26FB051B36FB46BB151B327BE
:101CBA00B251B423B4510AE11A0EB35DD8A068EF49
:101CCA000EF06BEF0EF0010E6CEF0EF0000EC06F0F
:101CDA00C16BC051C111D8A475EF0EF077EF0EF0A9
:101CEA007DEF0EF0000EBF6F650EBE6F81EF0EF036
:101CFA00000EBF6F450EBE6F000EE025D96E020EB4
:101D0A00E121DA6EBEC0DFFFD407D8A0D507000EE6
:101D1A00E825146E020EE921156E000EE025166EF6
:101D2A00020EE121176EBCEC2FF020EF09F0120031
:101D3A00CE50146E156A166A176A000EF9EC25F071
:101D4A0014C032F015C033F016C034F017C035F0A5
:101D5A00000E266E000E276E800E286E430E296E28
:101D6A00CF50146E156A166A176A000EF9EC25F040
:101D7A0014C022F015C023F016C024F017C025F0B5
:101D8A000AEC21F022C02EF023C02FF024C030F03C
:101D9A0025C031F057EC1CF02EC058F12FC059F174
:101DAA0030C05AF131C05BF1BD0E266E370E276E78
:101DBA00860E286E340E296E58C122F059C123F0BE
:101DCA005AC124F05BC125F00AEC21F022C032F09E
:101DDA0023C033F024C034F025C035F0BD0E266E82
:101DEA00370E276E860E286E3C0E296EBAC114F085
:101DFA00BBC115F0BCC116F0BDC117F0000EF9EC5D
:101E0A0025F014C022F015C023F016C024F017C024
:101E1A0025F00AEC21F022C02EF023C02FF024C0B6
:101E2A0030F025C031F057EC1CF02EC05CF12FC009
:101E3A005DF130C05EF131C05FF15CC122F05DC17D
:101E4A0023F05EC124F05FC125F0000E266E000E5D
:101E5A00276E7A0E286E440E296E0AEC21F022C0F3
:101E6A00B6F123C0B7F124C0B8F125C0B9F1B2C1A7
:101E7A0079F0B3C17AF0B4C17BF0B5C17CF0B6C1D8
:101E8A0075F0B7C176F0B8C177F0B9C178F03EEC19
:101E9A0030F075C07DF076C07EF077C07FF078C0F4
:101EAA0080F0000E0001816F000E826F7A0E836F40
:101EBA00440E846F20EC23F07DC07EF17EC07FF15A
:101ECA007FC080F180C081F1B6C1B2F1B7C1B3F170
:101EDA00B8C1B4F1B9C1B5F1D00EAFEC31F03B0ED7
:101EEA0077EC31F0BFEC31F0D10EAFEC31F0000EEF
:101EFA0062EC30F0000E62EC30F00101206F2051EC
:101F0A00226F216B000E62EC30F00101236F235126
:101F1A002111606F2251616F000E62EC30F00101F5
:101F2A00206F2051226F216B000E62EC30F001010C
:101F3A00236F23512111626F2251636F000E62ECED
:101F4A0030F00101206F2051226F216B000E62ECEC
:101F5A0030F00101236F23512111646F2251656F03
:101F6A00000E62EC30F00101206F2051226F216BCC
:101F7A00000E62EC30F00101236F235121116C6FC6
:101F8A0022516D6F000E62EC30F00101206F20517A
:101F9A00226F216B000E62EC30F00101236F235196
:101FAA002111666F2251676F000E62EC30F0010159
:101FBA00206F2051226F216B000E62EC30F001017C
:101FCA00236F23512111686F2251696F000E62EC51
:101FDA0030F00101206F2051226F216B010E62EC5B
:101FEA0030F00101236F235121116A6F22516B6F67
:101FFA00BFEC31F060C114F061C115F0000E15BEDE
:10200A00FF0E166E176E010EF9EC25F014C07DF066
:10201A0015C07EF016C07FF017C080F0000E0001D8
:10202A00816F000E826F800E836F460E846F20ECE4
:10203A0023F07DC06EF17EC06FF17FC070F180C069
:10204A0071F162C114F063C115F0000E15BEFF0EE6
:10205A00166E176E010EF9EC25F014C07DF015C04E
:10206A007EF016C07FF017C080F0000E0001816F6D
:10207A00000E826F800E836F460E846F20EC23F071
:10208A007DC072F17EC073F17FC074F180C075F1BA
:10209A0064C114F065C115F0000E15BEFF0E166E70
:1020AA00176E010EF9EC25F014C07DF015C07EF014
:1020BA0016C07FF017C080F0000E0001816F000E7D
:1020CA00826F800E836F460E846F20EC23F07DC0F2
:1020DA004CF17EC04DF17FC04EF180C04FF166C118
:1020EA0014F067C115F0000E15BEFF0E166E176EBE
:1020FA00010EF9EC25F014C07DF015C07EF016C073
:10210A007FF017C080F0000E0001816F000E826F11
:10211A00030E836F430E846F20EC23F07DC050F1D1
:10212A007EC051F17FC052F180C053F168C114F0F2
:10213A0069C115F0000E15BEFF0E166E176E010E60
:10214A00F9EC25F014C07DF015C07EF016C07FF0C2
:10215A0017C080F0000E0001816F000E826F030E1F
:10216A00836F430E846F20EC23F06AC114F06BC1B5
:10217A0015F0000E15BEFF0E166E176E010EF9EC65
:10218A0025F014C07DF015C07EF016C07FF017C090
:10219A0080F0000E0001816F000E826F030E836FC4
:1021AA00430E846F20EC23F07DC054F17EC055F1BC
:1021BA007FC056F180C057F1000E0001816F000EFA
:1021CA00826FAA0E836F430E846F6CC114F06DC1C7
:1021DA0015F0000E15BEFF0E166E176E010EF9EC05
:1021EA0025F014C07DF015C07EF016C07FF017C030
:1021FA0080F020EC23F07DC02EF07EC02FF07FC04F
:10220A0030F080C031F0B80E326E1E0E336E120EF0
:10221A00346E420E356E57EC1CF0CD0E0001816F04
:10222A00CC0E826F1C0E836F410E846F72C114F044
:10223A0073C115F074C116F075C117F0FFEC30F0D8
:10224A0014C07DF015C07EF016C07FF017C080F074
:10225A0020EC23F07DC082F17EC083F17FC084F13F
:10226A0080C085F1CD0E0001816FCC0E826F1C0EED
:10227A00836F410E846F6EC17DF06FC17EF070C1B5
:10228A007FF071C180F020EC23F07DC086F17EC022
:10229A0087F17FC088F180C089F182C1DCF083C1F7
:1022AA00DDF084C1DEF085C1DFF086C1D8F087C1D8
:1022BA00D9F088C1DAF089C1DBF0A4EC18F0D8C0F3
:1022CA008AF1D9C08BF1DAC08CF1DBC08DF1000E36
:1022DA000001816F000E826F000E836F400E846FC3
:1022EA008AC114F08BC115F08CC116F08DC117F09C
:1022FA00FFEC30F014C07DF015C07EF016C07FF000
:10230A0017C080F020EC23F07DC08EF17EC08FF1E3
:10231A007FC090F180C091F1000E266E000E276EEC
:10232A00B40E286E430E296EDB0E0001816F0F0E6C
:10233A00826F490E836F400E846F8EC17DF08FC10C
:10234A007EF090C17FF091C180F020EC23F07DC037
:10235A0022F07EC023F07FC024F080C025F00AEC72
:10236A0021F022C02EF023C02FF024C030F025C067
:10237A0031F0330E326E330E336EF30E346E3F0E7F
:10238A00356E57EC1CF02EC096F12FC097F130C075
:10239A0098F131C099F1CD0E0001816FCC0E826F98
:1023AA001C0E836F410E846F72C114F073C115F055
:1023BA0074C116F075C117F0FFEC30F014C07DF04F
:1023CA0015C07EF016C07FF017C080F020EC23F015
:1023DA007DC082F17EC083F17FC084F180C085F127
:1023EA00CD0E0001816FCC0E826F1C0E836F410EE1
:1023FA00846F4CC114F04DC115F04EC116F04FC197
:10240A0017F0FFEC30F014C07DF015C07EF016C056
:10241A007FF017C080F020EC23F07DC086F17EC0EB
:10242A0087F17FC088F180C089F182C1DCF083C165
:10243A00DDF084C1DEF085C1DFF086C1D8F087C146
:10244A00D9F088C1DAF089C1DBF0A4EC18F0D8C061
:10245A008AF1D9C08BF1DAC08CF1DBC08DF1000EA4
:10246A000001816F000E826F000E836F400E846F31
:10247A008AC114F08BC115F08CC116F08DC117F00A
:10248A00FFEC30F014C07DF015C07EF016C07FF06E
:10249A0017C080F020EC23F07DC08EF17EC08FF152
:1024AA007FC090F180C091F1000E266E000E276E5B
:1024BA00B40E286E430E296EDB0E0001816F0F0EDB
:1024CA00826F490E836F400E846F8EC17DF08FC17B
:1024DA007EF090C17FF091C180F020EC23F07DC0A6
:1024EA0022F07EC023F07FC024F080C025F00AECE1
:1024FA0021F022C02EF023C02FF024C030F025C0D6
:10250A0031F0330E326E330E336EF30E346EBF0E6D
:10251A00356E57EC1CF02EC09AF12FC09BF130C0DB
:10252A009CF131C09DF150C122F051C123F052C13A
:10253A0024F053C125F07EC126F07FC127F080C167
:10254A0028F081C129F00AEC21F022C0C4F123C08D
:10255A00C5F124C0C6F125C0C7F154C114F055C154
:10256A0015F056C116F057C117F0FFEC30F014C041
:10257A0022F015C023F016C024F017C025F07EC142
:10258A0026F07FC127F080C128F081C129F00AEC2A
:10259A0021F022C0C0F123C0C1F124C0C2F125C07C
:1025AA00C3F18F0E266EC20E276E750E286E3F0E71
:1025BA00296E96C132F097C133F098C134F099C1AF
:1025CA0035F0C4C12EF0C5C12FF0C6C130F0C7C165
:1025DA0031F057EC1CF02EC022F02FC023F030C08F
:1025EA0024F031C025F00AEC21F022C092F123C078
:1025FA0093F124C094F125C095F192C12EF093C1B4
:10260A002FF094C130F095C131F00A0E266ED70E24
:10261A00276E230E286E3D0E296E96C122F097C1B1
:10262A0023F098C124F099C125F00AEC21F022C0C8
:10263A0032F023C033F024C034F025C035F057EC13
:10264A001CF02EC076F12FC077F130C078F131C07E
:10265A0079F18F0E266EC20E276E750E286E3F0E0A
:10266A00296E9AC132F09BC133F09CC134F09DC1EE
:10267A0035F0C0C12EF0C1C12FF0C2C130F0C3C1C4
:10268A0031F057EC1CF02EC022F02FC023F030C0DE
:10269A0024F031C025F00AEC21F022C092F123C0C7
:1026AA0093F124C094F125C095F192C12EF093C103
:1026BA002FF094C130F095C131F00A0E266ED70E74
:1026CA00276E230E286E3D0E296E9AC122F09BC1F9
:1026DA0023F09CC124F09DC125F00AEC21F022C010
:1026EA0032F023C033F024C034F025C035F057EC63
:1026FA001CF02EC07AF12FC07BF130C07CF131C0C2
:10270A007DF1240E01010E6F010E0F6FB60E106FD0
:10271A00100E116F76C112F177C113F178C114F15D
:10272A0079C115F1EBEC2FF0240E156E010E166E21
:10273A00A7EC30F0240E01010E6F010E0F6FA60EEA
:10274A00106F100E116F7AC112F17BC113F17CC1A7
:10275A0014F17DC115F1EBEC2FF0240E156E010E6C
:10276A00166EA7EC30F0240E01010E6F010E0F6FEA
:10277A003D0E106F100E116F6EC112F16FC113F181
:10278A0070C114F171C115F1EBEC2FF0240E156E26
:10279A00010E166EA7EC30F0240E01010E6F010E29
:1027AA000F6F530E106F100E116FC4C112F1C5C115
:1027BA0013F1C6C114F1C7C115F1EBEC2FF0240EC9
:1027CA00156E010E166EA7EC30F0240E01010E6F85
:1027DA00010E0F6F680E106F100E116FC0C112F14B
:1027EA00C1C113F1C2C114F1C3C115F1EBEC2FF051
:1027FA00240E156E010E166EA7EC30F0240E0101A0
:10280A000E6F010E0F6F920E106F100E116F96C1A0
:10281A0012F197C113F198C114F199C115F1EBECBA
:10282A002FF0240E156E010E166EA7EC30F0240E52
:10283A0001010E6F010E0F6F7D0E106F100E116FDA
:10284A009AC112F19BC113F19CC114F19DC115F1FA
:10285A00EBEC2FF0240E156E010E166EA7EC30F07D
:10286A0076C179F077C17AF078C17BF079C17CF0D2
:10287A00000E0001756F000E766FB40E776F420E70
:10288A00786F3EEC30F075C07DF076C07EF077C090
:10289A007FF078C080F0B0EC29F07DC085F07EC072
:1028AA0086F0CFEC2DF07AC179F07BC17AF07CC149
:1028BA007BF07DC17CF0000E0001756F000E766F13
:1028CA00B40E776F420E786F3EEC30F075C07DF033
:1028DA0076C07EF077C07FF078C080F0B0EC29F047
:1028EA007DC085F07EC086F07CEC2DF012009EC083
:1028FA00A6F09FC0A7F0A0C0A8F0A1C0A9F0A6C0EA
:10290A00D4F0A7C0D5F0A8C0D6F0A9C0D7F0D4C0DB
:10291A00A2F0D5C0A3F0D6C0A4F0D7C0A5F0200E6F
:10292A009DEF14F00001D890A533A433A333A2334A
:10293A00E82E97EF14F0A2C0BEF0A3C0BFF0A4C067
:10294A00C0F0A5C0C1F0D79F800ED65D4C0ED759F6
:10295A00D8A0B2EF14F0B4EF14F01FEF15F09EC038
:10296A0014F09FC015F0A0C016F0A1C017F0B7EC84
:10297A002AF014501510D8A4C5EF14F0C7EF14F0BC
:10298A00D1EF14F09EC09EF09FC09FF0A0C0A0F0AF
:10299A00A1C0A1F0A3EF18F0310EF66E100EF76E7B
:1029AA00000EF86E0900F5CF2EF00900F5CF2FF0D2
:1029BA000900F5CF30F00A00F5CF31F0000E326E83
:1029CA00000E336E800E346E030E356E57EC1CF01B
:1029DA002EC0D0F02FC0D1F030C0D2F031C0D3F029
:1029EA000001BE51BF11C011C111D8A4FFEF14F0EC
:1029FA0001EF15F00BEF15F0D0C09EF0D1C09FF09B
:102A0A00D2C0A0F0D3C0A1F0A3EF18F0D0C014F048
:102A1A00D1C015F0D2C016F0D3C017F0FFEC30F0D9
:102A2A0014C09EF015C09FF016C0A0F017C0A1F008
:102A3A00A3EF18F0E00ED65D3E0ED759D8B028EFB6
:102A4A0015F02AEF15F03BEF15F0800ED65D390E22
:102A5A00D759D8B033EF15F035EF15F037EF15F039
:102A6A00C7EF14F0CE69CF697DEF16F09EC096F0DD
:102A7A009FC097F0A0C098F0A1C099F036EC31F051
:102A8A0096C09EF097C09FF098C0A0F099C0A1F0A0
:102A9A00980E0001D65D3F0ED759D8B057EF15F002
:102AAA0059EF15F0FEEF15F0300ED65D3F0ED759EF
:102ABA00D8B062EF15F064EF15F0BAEF15F0000E1A
:102ACA00CF6F000ECE6F000E326E000E336E800E88
:102ADA00346EBF0E356E000E266E000E276E000E87
:102AEA00286E400E296E9EC022F09FC023F0A0C01F
:102AFA0024F0A1C025F00AEC21F022C02EF023C058
:102B0A002FF024C030F025C031F057EC1CF02EC055
:102B1A007DF02FC07EF030C07FF031C080F0000E13
:102B2A00326E000E336E000E346E400E356E9EC04D
:102B3A002EF09FC02FF0A0C030F0A1C031F057ECAA
:102B4A001CF02EC081F02FC082F030C083F031C05B
:102B5A0084F020EC23F07DC09EF07EC09FF07FC001
:102B6A00A0F080C0A1F07DEF16F0000ECF6F010E2D
:102B7A00CE6F000E326E000E336E800E346EBF0EB4
:102B8A00356E9EC02EF09FC02FF0A0C030F0A1C0BD
:102B9A0031F057EC1CF02EC07DF02FC07EF030C013
:102BAA007FF031C080F0000E326E000E336E800E60
:102BBA00346E3F0E356E9EC02EF09FC02FF0A0C01F
:102BCA0030F0A1C031F057EC1CF02EC081F02FC0BC
:102BDA0082F030C083F031C084F020EC23F07DC055
:102BEA009EF07EC09FF07FC0A0F080C0A1F07DEF74
:102BFA0016F01C0ED65D400ED759D8B007EF16F066
:102C0A0009EF16F05FEF16F0000ECF6F020ECE6FCF
:102C1A00000E326E000E336EC00E346EBF0E356E6D
:102C2A009EC02EF09FC02FF0A0C030F0A1C031F09E
:102C3A0057EC1CF02EC07DF02FC07EF030C07FF024
:102C4A0031C080F0000E326E000E336E800E346E8C
:102C5A003F0E356E000E266E000E276EC00E286ED1
:102C6A003F0E296E9EC022F09FC023F0A0C024F020
:102C7A00A1C025F00AEC21F022C02EF023C02FF0CB
:102C8A0024C030F025C031F057EC1CF02EC081F082
:102C9A002FC082F030C083F031C084F020EC23F0E2
:102CAA007DC09EF07EC09FF07FC0A0F080C0A1F0E2
:102CBA007DEF16F0000ECF6F030ECE6F000E7D6F04
:102CCA00000E7E6F800E7F6FBF0E806F9EC081F0F8
:102CDA009FC082F0A0C083F0A1C084F020EC23F052
:102CEA007DC09EF07EC09FF07FC0A0F080C0A1F0A2
:102CFA009EC022F09FC023F0A0C024F0A1C025F0FE
:102D0A009EC026F09FC027F0A0C028F0A1C029F0DD
:102D1A000AEC21F022C0D0F023C0D1F024C0D2F0B6
:102D2A0025C0D3F0D0C022F0D1C023F0D2C024F005
:102D3A00D3C025F0D0C026F0D1C027F0D2C028F0E9
:102D4A00D3C029F00AEC21F022C0CAF023C0CBF08C
:102D5A0024C0CCF025C0CDF0090EF66E100EF76E29
:102D6A00000EF86E0900F5CF32F00900F5CF33F006
:102D7A000900F5CF34F00A00F5CF35F0CAC026F0C5
:102D8A00CBC027F0CCC028F0CDC029F0110EF66ECA
:102D9A00100EF76E000EF86E0900F5CF22F009004A
:102DAA00F5CF23F00900F5CF24F00A00F5CF25F07E
:102DBA000AEC21F022C02EF023C02FF024C030F0FC
:102DCA0025C031F057EC1CF02EC0C2F02FC0C3F062
:102DDA0030C0C4F031C0C5F0010EF66E100EF76EA9
:102DEA00000EF86E0900F5CF32F00900F5CF33F086
:102DFA000900F5CF34F00A00F5CF35F0CAC026F045
:102E0A00CBC027F0CCC028F0CDC029F0C2C022F038
:102E1A00C3C023F0C4C024F0C5C025F00AEC21F0D9
:102E2A0022C02EF023C02FF024C030F025C031F08C
:102E3A0057EC1CF02EC0AAF02FC0ABF030C0ACF09B
:102E4A0031C0ADF0AAC022F0ABC023F0ACC024F070
:102E5A00ADC025F0D0C026F0D1C027F0D2C028F0EE
:102E6A00D3C029F00AEC21F022C0B6F023C0B7F093
:102E7A0024C0B8F025C0B9F0050EF66E100EF76E34
:102E8A00000EF86E0900F5CF32F00900F5CF33F0E5
:102E9A000900F5CF34F00A00F5CF35F0CAC026F0A4
:102EAA00CBC027F0CCC028F0CDC029F00D0EF66EAD
:102EBA00100EF76E000EF86E0900F5CF22F0090029
:102ECA00F5CF23F00900F5CF24F00A00F5CF25F05D
:102EDA000AEC21F022C02EF023C02FF024C030F0DB
:102EEA0025C031F057EC1CF02EC0C2F02FC0C3F041
:102EFA0030C0C4F031C0C5F0C2C022F0C3C023F054
:102F0A00C4C024F0C5C025F0CAC026F0CBC027F043
:102F1A00CCC028F0CDC029F00AEC21F022C0BAF0CA
:102F2A0023C0BBF024C0BCF025C0BDF00001CFBF58
:102F3A00A3EF17F0A1EF17F0EBEF17F09EC026F002
:102F4A009FC027F0A0C028F0A1C029F0BAC032F073
:102F5A00BBC033F0BCC034F0BDC035F0B6C02EF0F3
:102F6A00B7C02FF0B8C030F0B9C031F057EC1CF040
:102F7A002EC022F02FC023F030C024F031C025F03B
:102F8A000AEC21F022C0C6F023C0C7F024C0C8F062
:102F9A0025C0C9F09EC075F09FC076F0A0C077F03A
:102FAA00A1C078F0C6C079F0C7C07AF0C8C07BF07B
:102FBA00C9C07CF03EEC30F075C09EF076C09FF040
:102FCA0077C0A0F078C0A1F0A3EF18F09EC026F059
:102FDA009FC027F0A0C028F0A1C029F0BAC032F0E3
:102FEA00BBC033F0BCC034F0BDC035F0B6C02EF063
:102FFA00B7C02FF0B8C030F0B9C031F057EC1CF0B0
:10300A002EC022F02FC023F030C024F031C025F0AA
:10301A000AEC21F022C0C6F023C0C7F024C0C8F0D1
:10302A0025C0C9F0CEC0A2F0CFC0A3F00001D8904D
:10303A00A237A337D890A237A337150EA225F66E6A
:10304A00100EA321F76EF86A000EF8220900F5CFD8
:10305A0079F00900F5CF7AF00900F5CF7BF00A0084
:10306A00F5CF7CF0C6C075F0C7C076F0C8C077F05F
:10307A00C9C078F03EEC30F075C0AEF076C0AFF063
:10308A0077C0B0F078C0B1F09EC079F09FC07AF0F6
:10309A00A0C07BF0A1C07CF0AEC075F0AFC076F0E6
:1030AA00B0C077F0B1C078F03EEC30F075C0B2F045
:1030BA0076C0B3F077C0B4F078C0B5F0CEC0A2F055
:1030CA00CFC0A3F00001D890A237A337D890A23777
:1030DA00A337250EA225F66E100EA321F76EF86A05
:1030EA00000EF8220900F5CF75F00900F5CF76F049
:1030FA000900F5CF77F00A00F5CF78F0B2C079F081
:10310A00B3C07AF0B4C07BF0B5C07CF03EEC30F0CE
:10311A0075C0D0F076C0D1F077C0D2F078C0D3F0C5
:10312A000001BE51BF11C011C111D8A49FEF18F000
:10313A00A1EF18F00BEF15F001EF15F01200DCC04B
:10314A0014F0DDC015F0DEC016F0DFC017F0B7ECE2
:10315A002AF014501510D8B4B5EF18F0B7EF18F0DC
:10316A00CAEF18F0D8C014F0D9C015F0DAC016F0BA
:10317A00DBC017F0B7EC2AF014501510D8A4C8EF2A
:10318A0018F0CAEF18F0E6EF18F0DCC02EF0DDC038
:10319A002FF0DEC030F0DFC031F0D8C032F0D9C035
:1031AA0033F0DAC034F0DBC035F057EC1CF02EC037
:1031BA00D8F02FC0D9F030C0DAF031C0DBF056EFCA
:1031CA001CF0DCC00CF1DDC00DF1DEC00EF1DFC079
:1031DA000FF10CC114F10DC115F10EC116F10FC199
:1031EA0017F1D8C00CF1D9C00DF1DAC00EF1DBC06D
:1031FA000FF10CC118F10DC119F10EC11AF10FC16D
:10320A001BF1800E0101161909E13F0E171914115D
:10321A001511D8A413EF19F015EF19F029EF19F0C9
:10322A00D8C09EF0D9C09FF0DAC0A0F0DBC0A1F0F0
:10323A007CEC14F09EC0D8F09FC0D9F0A0C0DAF0A0
:10324A00A1C0DBF056EF1CF014C1E0F015C1E1F0AB
:10325A0016C1E2F017C1E3F01F0E3AEF19F00001B0
:10326A00D890E333E233E133E033E82E34EF19F058
:10327A00020EE015E46F000EE115E56F000EE2158F
:10328A00E66F000EE315E76F18C1E8F019C1E9F01F
:10329A001AC1EAF01BC1EBF0200E59EF19F0D890D1
:1032AA00EB33EA33E933E833E82E54EF19F0010E31
:1032BA00E815EC6F000EE915ED6F000EEA15EE6FDA
:1032CA00000EEB15EF6FE451EC1101011C6F0001C8
:1032DA00E551ED1101011D6F0001E651EE110101E9
:1032EA001E6F0001E751EF1101011F6F179F1B9F0E
:1032FA00185119111A111B11D8A486EF19F088EF69
:10330A0019F0D9EF19F0A8EF19F0D8C0D8F0D9C040
:10331A00D9F0DAC0DAF0DBC0DBF056EF1CF0DB0ED6
:10332A00D86F0F0ED96F490EDA6F400EDB6F56EF6A
:10333A001CF0DB0ED86F0F0ED96F490EDA6FC00E74
:10334A00DB6F56EF1CF01CC1E0F01DC1E1F01EC19D
:10335A00E2F01FC1E3F00001E351000AD8B4D2EF52
:10336A0019F0D9EF19F0E151000AD8B4BFEF19F0FA
:10337A00D9EF19F0E051000AD8B48AEF19F0010A1E
:10338A00D8B48AEF19F0030AD8B494EF19F0010AF5
:10339A00D8B49EEF19F0D9EF19F0E251000AD8B467
:1033AA00B8EF19F0D9EF19F00101145115111611DE
:1033BA001711D8A4E3EF19F0E5EF19F002EF1AF0AC
:1033CA001CB1EAEF19F0ECEF19F0F7EF19F0DB0E88
:1033DA000001D86F0F0ED96FC90EDA6F3F0EDB6F7F
:1033EA0056EF1CF0DB0E0001D86F0F0ED96FC90E15
:1033FA00DA6FBF0EDB6F56EF1CF0800E161909E16B
:10340A007F0E171914111511D8A40EEF1AF010EF28
:10341A001AF0D2EF1AF0800E1A1909E17F0E1B1961
:10342A0018111911D8A41CEF1AF01EEF1AF0A1EF07
:10343A001AF048EF1AF0DB0ED86F0F0ED96F490E4B
:10344A00DA6F3F0EDB6F56EF1CF0DB0ED86F0F0EF4
:10345A00D96F490EDA6FBF0EDB6F56EF1CF0E40E20
:10346A00D86FCB0ED96F160EDA6F400EDB6F56EFA0
:10347A001CF0E40ED86FCB0ED96F160EDA6FC00EA1
:10348A00DB6F56EF1CF01CC1E0F01DC1E1F01EC15C
:10349A00E2F01FC1E3F00001E351000AD8B472EF71
:1034AA001AF0D2EF1AF0E151000AD8B45FEF1AF01D
:1034BA00D2EF1AF0E051000AD8B420EF1AF0010A4C
:1034CA00D8B42AEF1AF0030AD8B434EF1AF0010A72
:1034DA00D8B43EEF1AF0D2EF1AF0E251000AD8B48B
:1034EA0058EF1AF0D2EF1AF0000ED86F000ED96F0B
:1034FA00000EDA6F000EDB6F56EF1CF0000ED86F6D
:10350A00000ED96F000EDA6F800EDB6F56EF1CF0DB
:10351A00DB0ED86F0F0ED96F490EDA6F400EDB6FD4
:10352A0056EF1CF0DB0ED86F0F0ED96F490EDA6F0B
:10353A00C00EDB6F56EF1CF01CC1E0F01DC1E1F0BC
:10354A001EC1E2F01FC1E3F00001E351000AD8B442
:10355A00CBEF1AF0D2EF1AF0E151000AD8B4B8EF63
:10356A001AF0D2EF1AF0E051000AD8B479EF1AF043
:10357A00010AD8B483EF1AF0030AD8B48DEF1AF00F
:10358A00010AD8B497EF1AF0D2EF1AF0E251000A02
:10359A00D8B4B1EF1AF0D2EF1AF0000E01011425D7
:1035AA000001E06F000E010115210001E16F000E1C
:1035BA00010116210001E26F0D0E01011721000120
:1035CA00E36F010118510001E05D01011951000189
:1035DA00E15901011A510001E25901011B5100018F
:1035EA00E359D8A0FBEF1AF0FDEF1AF00CEF1BF02D
:1035FA00800E01011A1909E17F0E1B191811191100
:10360A00D8A40AEF1BF00CEF1BF02AEF1BF0010104
:10361A001CB112EF1BF014EF1BF01FEF1BF0DB0EB7
:10362A000001D86F0F0ED96FC90EDA6F3F0EDB6F2C
:10363A0056EF1CF0DB0E0001D86F0F0ED96FC90EC2
:10364A00DA6FBF0EDB6F56EF1CF01CA32FEF1BF0D7
:10365A0031EF1BF066EF1BF0000E18250001E06F3A
:10366A00000E010119210001E16F000E01011A216A
:10367A000001E26F0D0E01011B210001E36F010140
:10368A0014510001E05D010115510001E1590101E8
:10369A0016510001E259010117510001E359D8B04E
:1036AA0059EF1BF05BEF1BF066EF1BF0000E0101F8
:1036BA00106F000E116F000E126F000E136F29EFBC
:1036CA001CF0D8C07DF0D9C07EF0DAC07FF0DBC034
:1036DA0080F0DCC081F0DDC082F0DEC083F0DFC0A4
:1036EA0084F020EC23F07DC096F07EC097F07FC076
:1036FA0098F080C099F036EC31F096C000F197C08E
:10370A0001F198C002F199C003F100C19EF001C114
:10371A009FF002C1A0F003C1A1F07CEC14F09EC09E
:10372A0010F19FC011F1A0C012F1A1C013F129EF4D
:10373A001CF010C1D8F011C1D9F012C1DAF013C1CE
:10374A00DBF056EF1CF010C114F011C115F012C1D4
:10375A0016F013C117F0FFEC30F014C0D8F015C002
:10376A00D9F016C0DAF017C0DBF056EF1CF02E0EB7
:10377A00326EBD0E336EBB0E346E330E356E10C113
:10378A002EF011C12FF012C130F013C131F057ECF5
:10379A001CF02EC004F12FC005F130C006F131C073
:1037AA0007F1DB0E0001756F0F0E766F490E776F0A
:1037BA00400E786F04C179F005C17AF006C17BF03A
:1037CA0007C17CF03EEC30F075C0D8F076C0D9F075
:1037DA0077C0DAF078C0DBF056EF1CF02E0E326EAE
:1037EA00BD0E336EBB0E346E330E356E10C12EF025
:1037FA0011C12FF012C130F013C131F057EC1CF097
:10380A002EC008F12FC009F130C00AF131C00BF106
:10381A0008C12EF009C12FF00AC130F00BC131F0F6
:10382A00DB0E326E0F0E336E490E346EC00E356EDD
:10383A0057EC1CF02EC0D8F02FC0D9F030C0DAF007
:10384A0031C0DBF056EF1CF01CC1E0F01DC1E1F005
:10385A001EC1E2F01FC1E3F00001E351000AD8B42F
:10386A004FEF1CF0F3EF1BF0E151000AD8B440EF20
:10387A001CF0F3EF1BF0E051000AD8B49EEF1BF0E6
:10388A00010AD8B4A8EF1BF0030AD8B4BCEF1BF0A6
:10389A00F3EF1BF0E251000AD8B439EF1CF0F3EF52
:1038AA001BF012003150800B0001716F315031242E
:1038BA00736F30AE63EF1CF065EF1CF066EF1CF01F
:1038CA0073817351D8B46CEF1CF06EEF1CF083EF68
:1038DA001CF07329D8A474EF1CF076EF1CF07EEF6D
:1038EA001CF0000E2E6E000E2F6E000E306E000EB3
:1038FA00316E308E000E316E8BEF1CF0000E2E6E84
:10390A00000E2F6E000E306E000E316E3550800B99
:10391A00726F71517219D8B495EF1CF097EF1CF0C1
:10392A0098EF1CF0718D35503524726F34AEA0EFCC
:10393A001CF0A2EF1CF0A3EF1CF072817251D8B4F4
:10394A00A9EF1CF0ABEF1CF0C0EF1CF07229D8A451
:10395A00B1EF1CF0B3EF1CF0BBEF1CF0000E326E9F
:10396A00000E336E000E346E000E356E348E000E6D
:10397A00356EC8EF1CF0000E326E000E336E000E6C
:10398A00346E000E356E7351725DD8B0CFEF1CF0F5
:10399A00D1EF1CF0F8EF1CF071ADD6EF1CF0D8EFA8
:1039AA001CF0DAEF1CF0800E711B73C074F072C049
:1039BA0073F074C072F02EC074F032C02EF074C06E
:1039CA0032F02FC074F033C02FF074C033F030C01F
:1039DA0074F034C030F074C034F031C074F035C0C3
:1039EA0031F074C035F0000E746F735172C06DF00F
:1039FA006E6B6D5F000E6E5B6EBF0DEF1DF06E514C
:103A0A0009E11A0E6D5DD8A00DEF1DF00FEF1DF044
:103A1A0046EF1DF02E502F1030103110D8A418EF99
:103A2A001DF01BEF1DF0010E1CEF1DF0000E746F50
:103A3A00000E2E6E000E2F6E000E306E000E316ECE
:103A4A0072C073F04FEF1DF074A12EEF1DF030EF2E
:103A5A001DF036EF1DF0D89074310109746F38EFFC
:103A6A001DF0D89074332EA03DEF1DF03FEF1DF0EE
:103A7A0040EF1DF0748F3134313230322F322E3212
:103A8A00732B7251735DD8A04DEF1DF04FEF1DF0EF
:103A9A0029EF1DF071BD54EF1DF056EF1DF096EFA2
:103AAA001DF07351D8A45CEF1DF05EEF1DF068EFB6
:103ABA001DF0000E2E6E000E2F6E000E306E000EE0
:103ACA00316EB7EF1EF032502E2633502F2234506B
:103ADA0030223550312231A075EF1DF077EF1DF0FD
:103AEA0023EF1EF074A17CEF1DF07EEF1DF084EF32
:103AFA001DF0D89074310109746F86EF1DF0D890CB
:103B0A0074332EA08BEF1DF08DEF1DF08EEF1DF09C
:103B1A00748F3134313230322F322E32732B23EFFD
:103B2A001EF032502E5C33502F58345030583150DA
:103B3A00800A6D6F3550800A6D59D8B0A7EF1DF015
:103B4A00A9EF1DF0D4EF1DF02E50325C6D6F2F508F
:103B5A0033586E6F305034586F6F31503558706F1C
:103B6A00FF0E6D252E6EFF0E6E212F6EFF0E6F213A
:103B7A00306EFF0E7021316E800E711B746D7451A0
:103B8A00D8A4CAEF1DF0CCEF1DF0DCEF1DF0010E3A
:103B9A002E26000E2F2230223122DCEF1DF0325069
:103BAA002E5E33502F5A3450305A3550315A2E50D7
:103BBA002F1030103110D8A4E5EF1DF0E7EF1DF0FB
:103BCA001CEF1EF07451D8A4EDEF1DF0EFEF1DF0BD
:103BDA001CEF1EF0000E2E6E000E2F6E000E306EC1
:103BEA00000E316EB7EF1EF0D8902E362F363036D3
:103BFA00313674AF03EF1EF005EF1EF006EF1EF02C
:103C0A002E8074A10BEF1EF00DEF1EF011EF1EF0C7
:103C1A00D880743713EF1EF0D89074377351D8B424
:103C2A0019EF1EF01BEF1EF01CEF1EF0730730AEEB
:103C3A0021EF1EF023EF1EF0F9EF1DF0000E726F58
:103C4A0074AF2AEF1EF02CEF1EF044EF1EF074C082
:103C5A006DF07F0E6D17D8B435EF1EF037EF1EF0FA
:103C6A003BEF1EF0010E726F44EF1EF02EA040EFE4
:103C7A001EF042EF1EF044EF1EF037EF1EF07251B5
:103C8A00D8B44AEF1EF04CEF1EF077EF1EF0010E8B
:103C9A002E26000E2F223022312231A057EF1EF09D
:103CAA0059EF1EF077EF1EF02EC06DF02FC06EF0A8
:103CBA0030C06FF031C070F0703570336F336E33CF
:103CCA006D336DC02EF06EC02FF06FC030F070C033
:103CDA0031F07329D8B474EF1EF076EF1EF077EF47
:103CEA001EF0732B7329D8B47DEF1EF07FEF1EF000
:103CFA0087EF1EF07351D8A485EF1EF087EF1EF0F0
:103D0A0099EF1EF0000E2E6E000E2F6E000E306E12
:103D1A00000E316E7351D8A495EF1EF097EF1EF086
:103D2A0099EF1EF0000E716F73A19EEF1EF0A0EFC7
:103D3A001EF0A3EF1EF0308EA4EF1EF0309ED89036
:103D4A007331316E71AFACEF1EF0AEEF1EF0AFEF14
:103D5A001EF0318E2EC02EF02FC02FF030C030F062
:103D6A0031C031F01200F0C0D9FFF1C0DAFFDECF66
:103D7A00F6FFDDCFF7FF000EF86E0800F550250AB2
:103D8A00D8A4CAEF1EF0CCEF1EF0ECEF20F0F0C082
:103D9A00D9FFF1C0DAFFDE2A000EDD22000E396EED
:103DAA00000E386E38C03CF039C03DF03A683B68C6
:103DBA00F0C0D9FFF1C0DAFFDECFF6FFDDCFF7FFA3
:103DCA00000EF86E0800F5502E0AD8A4EFEF1EF088
:103DDA00F1EF1EF074EF1FF0000E3B6E000E3A6E0C
:103DEA00F0C0D9FFF1C0DAFFDE2A000EDD22F0C0F2
:103DFA00D9FFF1C0DAFFDECFF6FFDDCFF7FF000E05
:103E0A00F86E0800F5502A0AD8A40EEF1FF010EF3A
:103E1A001FF02DEF1FF0F0C0D9FFF1C0DAFFDE2A44
:103E2A00000EDD22F2C0D9FFF3C0DAFFDFCFF4F0D3
:103E3A00020EDE26DFCFF5F0000EDD22F4C0D9FF38
:103E4A00F5C0DAFFDECF3AF0DDCF3BF074EF1FF0BA
:103E5A00F0C0D9FFF1C0DAFFDECF1BF0DDCF1CF0D6
:103E6A00D3EC26F01BC03AF01CC03BF044EF1FF025
:103E7A00F0C0D9FFF1C0DAFFDE2A000EDD22D00E33
:103E8A000001F46FFF0EF56FF0C0D9FFF1C0DAFF41
:103E9A00DECFF6FFDDCFF7FF000EF86E0800F55013
:103EAA00F66FF76BF451F627F551F723F7510AE14C
:103EBA000A0EF65DD8A064EF1FF067EF1FF0010E3F
:103ECA0068EF1FF0000E0101006F016B0051011134
:103EDA00D8A472EF1FF074EF1FF03DEF1FF0F0C08F
:103EEA00D9FFF1C0DAFFDECFF6FFDDCFF7FF000E14
:103EFA00F86E0800F5501A6E1B6A8CEC2FF01A50F7
:103F0A000101086F0851D8B48DEF1FF08FEF1FF031
:103F1A00CFEF1FF0F0C0D9FFF1C0DAFFDECFF4F027
:103F2A00DDCFF5F0010E0001F427000EF523F4C0F1
:103F3A00F6FFF5C0F7FF000EF86E0800F5501A6E8E
:103F4A001B6A8CEC2FF01A500101096F0951D8B481
:103F5A00B1EF1FF0B3EF1FF0CFEF1FF0F0C0D9FFA2
:103F6A00F1C0DAFFDECFF4F0DDCFF5F0020E00018A
:103F7A00F427000EF523F4C0F6FFF5C0F7FF000E94
:103F8A00F86E0800F5501A6E1B6A8CEC2FF01A5066
:103F9A0001010A6F660E0819D8A4D6EF1FF0D8EFF0
:103FAA001FF01AEF20F0F0C0D9FFF1C0DAFFDECF20
:103FBA00F6FFDDCFF7FF000EF86E0800F5CF0BF124
:103FCA00F0C0D9FFF1C0DAFFDE2A000EDD22F2C00E
:103FDA00D9FFF3C0DAFFDFCFF4F0040EDE26DFCF1D
:103FEA00F5F0000EDD22F4C0D9FFF5C0DAFFDECF0E
:103FFA0004F1DECF05F1DECF06F1DECF07F1EEC028
:10400A00AAF0EFC0ABF004C1ACF005C1ADF006C137
:10401A00AEF007C1AFF00BC1B0F06DEC08F0AAC06A
:10402A00EEF0ABC0EFF009EF21F0080E146E010EAE
:10403A00156ED50E166E100E176E000E196E020E44
:10404A00186E36EC2BF014501510D8A42FEF20F070
:10405A0031EF20F0B2EF20F0F0C0D9FFF1C0DAFF63
:10406A00DECFF4F0DDCFF5F0010E0001F427000EEB
:10407A00F523F4C0F6FFF5C0F7FF000EF86E08004E
:10408A00F5CF0BF1BF0EF46FFF0EF56FF0C0D9FF3D
:10409A00F1C0DAFFDECFF6FFDDCFF7FF000EF86ED4
:1040AA000800F550F66FF76BF451F627F551F72330
:1040BA00F7510AE11A0EF65DD8A066EF20F069EF13
:1040CA0020F0010E6AEF20F0000E0101026F036B6F
:1040DA0002510311D8B474EF20F076EF20F090EF7C
:1040EA0020F0F2C0D9FFF3C0DAFFDFCFF4F0040EFC
:1040FA00DE26DFCFF5F0000EDD22F4C0D9FFF5C0D1
:10410A00DAFFDECF04F1DECF05F1DECF06F1DECF36
:10411A0007F1A8EF20F0F2C0D9FFF3C0DAFFDFCF32
:10412A00F4F0040EDE26DFCFF5F0000EDD22F4C037
:10413A00D9FFF5C0DAFFDECF04F1DECF05F1DECF1D
:10414A0006F1DECF07F1020EF0C0D9FFF1C0DAFFA7
:10415A00DE26000EDD2204EF20F0F0C0D9FFF1C008
:10416A00DAFFDECFF6FFDDCFF7FF000EF86E0800AC
:10417A00F550250AD8A4C4EF20F0C6EF20F0DEEFF0
:10418A0020F0F0C0D9FFF1C0DAFFDE2A000EDD22EE
:10419A00000E156E250E146EEEC016F0EFC017F065
:1041AA00A7EC2BF0000E0001EF6F010EEE6F09EF86
:1041BA0021F0F0C0D9FFF1C0DAFFDE2A000EDD22BD
:1041CA00000E0001EF6F000EEE6F09EF21F0F0C054
:1041DA00D9FFF1C0DAFFDECFF6FFDDCFF7FF000E21
:1041EA00F86E0800F550146E156AEEC016F0EFC0AE
:1041FA0017F0A7EC2BF0F0C0D9FFF1C0DAFFDE2AE6
:10420A00000EDD22D7EF20F012002550800B0001AE
:10421A00606F25502524666F24AE16EF21F018EF43
:10422A0021F019EF21F066816651D8B41FEF21F011
:10423A0021EF21F034EF21F06629D8A427EF21F0ED
:10424A0029EF21F031EF21F0000E226E000E236ECD
:10425A00000E246E000E256E248E3CEF21F0000E17
:10426A00226E000E236E000E246E000E256E29505B
:10427A00800B601B29502924616F28AE47EF21F07B
:10428A0049EF21F04AEF21F061816151D8B450EF32
:10429A0021F052EF21F065EF21F06129D8A458EFFF
:1042AA0021F05AEF21F062EF21F0000E266E000E87
:1042BA00276E000E286E000E296E288E6DEF21F0F3
:1042CA00000E266E000E276E000E286E000E296E56
:1042DA006151D8B473EF21F075EF21F07DEF21F031
:1042EA006651D8A47BEF21F07DEF21F087EF21F012
:1042FA00000E226E000E236E000E246E000E256E36
:10430A001FEF23F028502202F3CF6BF0F4CF6CF0AA
:10431A006B51626F636B646B656B6C51676F686B33
:10432A00696B6A6B27502302F3CF6BF0F4CF6CF002
:10433A006B516227000E6323642365236C51672740
:10434A00000E682369236A2326502402F3CF6BF0F8
:10435A00F4CF6CF06B516227000E6323642365234C
:10436A006C516727000E682369236A2364C065F0CD
:10437A0063C064F062C063F0626B26502302F3CF1D
:10438A006BF0F4CF6CF06B5162276C516323000E13
:10439A006423000E652327502202F3CF6BF0F4CF7B
:1043AA006CF06B5162276C516323000E6423000E7C
:1043BA00652364C065F063C064F062C063F0626B39
:1043CA0026502202F3CF6BF0F4CF6CF06B516227C8
:1043DA006C516323000E6423000E652328502302C8
:1043EA00F3CF6BF0F4CF6CF06B5167276C516823F5
:1043FA00000E6923000E6A2327502402F3CF6BF0C4
:10440A00F4CF6CF06B5167276C516823000E692357
:10441A00000E6A2328502402F3CF6BF0F4CF6CF01D
:10442A006B512A6E6C512B6E2C6A2D6A2CC02DF0A2
:10443A002BC02CF02AC02BF02A6A2A5067272B504F
:10444A0068232C5069232D506A2362C02AF063C066
:10445A002BF064C02CF065C02DF0190E3AEF22F053
:10446A00D8902D322C322B322A32E82E35EF22F018
:10447A002A5067272B5068232C5069232D506A2312
:10448A0064C065F063C064F062C063F0626B61513E
:10449A0066C02AF02B6A2A26000E2B22820E2A24B4
:1044AA006B6FFF0E2B206C6F70EF22F0D89067377E
:1044BA00683769376A3765AF65EF22F067EF22F030
:1044CA0068EF22F06781D8906237633764376537BF
:1044DA006B07D8A06C0769AF75EF22F077EF22F06F
:1044EA005BEF22F0000E616F65AF7EEF22F080EF86
:1044FA0022F0A4EF22F0FF0E62152A6EFF0E63155A
:10450A002B6EFF0E64152C6E7F0E65152D6E2A50CC
:10451A002B102C102D10D8B495EF22F097EF22F023
:10452A009BEF22F0010E616FA4EF22F067A1A0EFCA
:10453A0022F0A2EF22F0A4EF22F097EF22F06151CD
:10454A00D8B4AAEF22F0ACEF22F0D0EF22F0010E9D
:10455A006727000E682369236A236AA1B7EF22F04E
:10456A00B9EF22F0D0EF22F067C02AF068C02BF032
:10457A0069C02CF06AC02DF02D342D322C322B322A
:10458A002A322AC067F02BC068F02CC069F02DC00F
:10459A006AF06B4B6C2B6CBFDBEF22F06C5108E1BD
:1045AA006B29D8A0DBEF22F0DDEF22F0E7EF22F053
:1045BA00000E676F000E686F800E696F7F0E6A6F5C
:1045CA0015EF23F06CBFF4EF22F06C5106E16B0596
:1045DA00D8B0F2EF22F0F4EF22F000EF23F0000E51
:1045EA00676F000E686F000E696F000E6A6F000E2B
:1045FA00606F15EF23F06BC066F0FF0E6717FF0EB2
:10460A0068177F0E6917000E6A1766A10FEF23F06D
:10461A0011EF23F012EF23F0698FD89066316A6F99
:10462A0060516A1367C022F068C023F069C024F0A1
:10463A006AC025F0120000018051800B8D6F8051F5
:10464A008025946F7FAF2CEF23F02EEF23F02FEF0E
:10465A0023F094819451D8B435EF23F037EF23F047
:10466A004CEF23F09429D8A43DEF23F03FEF23F039
:10467A0047EF23F0000E7D6F000E7E6F000E7F6FF6
:10468A00000E806F7F8F000E806F54EF23F0000EB4
:10469A007D6F000E7E6F000E7F6F000E806F84515B
:1046AA00800B8D1B84518425956F83AF5FEF23F0B8
:1046BA0061EF23F062EF23F095819551D8B468EF4A
:1046CA0023F06AEF23F07FEF23F09529D8A470EF47
:1046DA0023F072EF23F07AEF23F0000E816F000EC1
:1046EA00826F000E836F000E846F838F000E846FBB
:1046FA0087EF23F0000E816F000E826F000E836F2A
:10470A00000E846F8151821183118411D8A490EF15
:10471A0023F092EF23F0AAEF23F0000E7D6F000E34
:10472A007E6F000E7F6F000E806F800E7F137F0EEC
:10473A0080138D5180137DC07DF07EC07EF07FC0D6
:10474A007FF080C080F0EDEF24F09451D8A4B0EF50
:10475A0023F0B2EF23F0BCEF23F0000E7D6F000EC2
:10476A007E6F000E7F6F000E806FEDEF24F0955183
:10477A0094C085F0866B855F000E865B7F0E85256B
:10478A008E6F000E86218F6F7DC089F07EC08AF001
:10479A007FC08BF080C08CF0000E7D6F000E7E6FA4
:1047AA00000E7F6F000E806F000E906F000E916FEB
:1047BA00000E926F000E936F000E956F1DEF24F09E
:1047CA009551D8B4EBEF23F0EDEF23F004EF24F08A
:1047DA00D89089378A378B378C37D8907D377E3790
:1047EA007F37803793AFFCEF23F0FEEF23F0FFEF24
:1047FA0023F07D81D8909037913792379337815142
:10480A00895D82518A5983518B5984518C59D8A018
:10481A0011EF24F013EF24F01CEF24F0938D815153
:10482A00895F82518A5B83518B5B84518C5B952BA8
:10483A00190E956523EF24F025EF24F0E5EF23F018
:10484A0089518A118B118C11D8B42EEF24F030EFD4
:10485A0024F048EF24F0908148EF24F0D8907D3777
:10486A007E377F37803793AF3DEF24F03FEF24F058
:10487A0040EF24F07D81D890903791379237933763
:10488A008E07D8A08F077FAF4DEF24F04FEF24F0AB
:10489A0033EF24F0000E956F93AF56EF24F058EFE4
:1048AA0024F07CEF24F0FF0E9015856FFF0E911512
:1048BA00866FFF0E9215876F7F0E9315886F85514D
:1048CA00861187118811D8B46DEF24F06FEF24F0A8
:1048DA0073EF24F0010E956F7CEF24F07DA178EF41
:1048EA0024F07AEF24F07CEF24F06FEF24F0955156
:1048FA00D8B482EF24F084EF24F0A8EF24F0010E5C
:10490A007D27000E7E237F23802380A18FEF24F052
:10491A0091EF24F0A8EF24F07DC085F07EC086F0E8
:10492A007FC087F080C088F0883588338733863324
:10493A00853385C07DF086C07EF087C07FF088C051
:10494A0080F08E4B8F2B8FBFB3EF24F08F5108E18D
:10495A008E29D8A0B3EF24F0B5EF24F0C0EF24F0ED
:10496A00000E8F6F8E69000E7D6F000E7E6F000E37
:10497A007F6F000E806F8FBFCDEF24F08F5106E15D
:10498A008E05D8B0CBEF24F0CDEF24F0DBEF24F086
:10499A00000E8F6F000E8E6F000E7D6F000E7E6F01
:1049AA00000E7F6F000E806F000E8D6F8EC094F028
:1049BA0094A1E2EF24F0E4EF24F0E7EF24F07F8FF4
:1049CA00E8EF24F07F9FD8909431806F9EEF23F018
:1049DA001200A2C1A6F0A3C1A7F0A4C1A8F0A5C164
:1049EA00A9F096C0A6F097C0A7F098C0A8F099C001
:1049FA00A9F0810E00019A6FFF0E9B6FA6C09CF072
:104A0A00A7C09DF0A8C09EF0A9C09FF0180E13EF92
:104A1A0025F0D8909F339E339D339C33E82E0EEFBA
:104A2A0025F09C519A25A46F000E9B21A56FA5BF66
:104A3A0028EF25F0A55109E1170EA45DD8A028EFAB
:104A4A0025F02AEF25F034EF25F096C096F097C0AE
:104A5A0097F098C098F099C099F0F8EF25F0A5BFA3
:104A6A0039EF25F03BEF25F0ACEF25F0A4C09AF022
:104A7A00FF0E9B6FFF0E9C6F7F0E9D6F000E9E6F49
:104A8A009A674AEF25F052EF25F09E359E339D3303
:104A9A009C339B339A2F45EF25F09BC0A0F09CC016
:104AAA00A1F09DC0A2F09EC0A3F00001A051A615DE
:104ABA009A6FA151A7159B6FA251A8159C6FA3517C
:104ACA00A9159D6F9A519B119C119D11D8A470EF45
:104ADA0025F072EF25F074EF25F02AEF25F0A6C035
:104AEA009AF0A7C09BF0A8C09CF0A9C09DF0200E28
:104AFA0084EF25F0D8909D339C339B339A33E82E6C
:104B0A007FEF25F09A519B119C119D11D8B490EF1B
:104B1A0025F092EF25F09AEF25F0A051A627A15192
:104B2A00A723A251A823A351A923A01D9A6FA11DAF
:104B3A009B6FA21D9C6FA31D9D6F9A51A6179B5137
:104B4A00A7179C51A8179D51A917F0EF25F0A6C0E9
:104B5A009AF0A7C09BF0A8C09CF0A9C09DF0200EB7
:104B6A00BCEF25F0D8909D339C339B339A33E82EC3
:104B7A00B7EF25F09A519B119C119D11D8A4C8EF4B
:104B8A0025F0CAEF25F0D4EF25F0000EA66F000E2F
:104B9A00A76F000EA86F000EA96FF0EF25F0D8904E
:104BAA00A6359A6FA7359B6FA8359C6FA9359D6F5F
:104BBA009A519B119C119D11D8B4E6EF25F0E8EFAC
:104BCA0025F0F0EF25F0000EA66F000EA76F800EFD
:104BDA00A86FBF0EA96FA6C096F0A7C097F0A8C08D
:104BEA0098F0A9C099F012001C6E1C50D8B400EFBE
:104BFA0026F002EF26F024EF26F017BE09EF26F082
:104C0A0007EF26F024EF26F014C018F015C019F0AB
:104C1A0016C01AF017C01BF0181E191E1A1E1B1EEA
:104C2A00182A000E19221A221B2218C01EF019C0B7
:104C3A001FF01AC020F01BC021F02CEF26F014C080
:104C4A001EF015C01FF016C020F017C021F0145036
:104C5A00151016101710D8A435EF26F037EF26F0E6
:104C6A0041EF26F0000E146E000E156E000E166E41
:104C7A00000E176ED2EF26F0960E1D6E4BEF26F041
:104C8A001D2AD890213220321F321E32000E1E14E5
:104C9A00186E000E1F14196E000E20141A6EFE0EE6
:104CAA0021141B6E185019101A101B10D8A460EF8B
:104CBA0026F062EF26F045EF26F070EF26F01D2A67
:104CCA00010E1E26000E1F2220222122D8902132F8
:104CDA0020321F321E32000E1E14186E000E1F14D0
:104CEA00196E000E20141A6EFF0E21141B6E185036
:104CFA0019101A101B10D8A485EF26F087EF26F09A
:104D0A0064EF26F08FEF26F01D06D8901E361F3668
:104D1A002036213620BE94EF26F096EF26F09EEF3D
:104D2A0026F0020E1D609CEF26F09EEF26F089EF1A
:104D3A0026F01DB0A3EF26F0A5EF26F0A6EF26F089
:104D4A00209ED8901D321DC018F0196A1A6A1B6A73
:104D5A0018C01BF01A6A196A186A18501E121950DC
:104D6A001F121A5020121B5021121C50D8B4C0EF27
:104D7A0026F0C2EF26F0CAEF26F017BEC9EF26F0DA
:104D8A00C7EF26F0CAEF26F0218E1EC014F01FC00E
:104D9A0015F020C016F021C017F01200000E296E7F
:104DAA00000E286E000E226E000E216EDFEF26F036
:104DBA001B4A1C2A010E276E1BC0F6FF1CC0F7FFF8
:104DCA00000EF86E0800F550200AD8B4EFEF26F06E
:104DDA00F1EF26F010EF27F0F70E1D6EFF0E1E6E94
:104DEA001BC0F6FF1CC0F7FF000EF86E0800F55056
:104DFA001F6E206A1D501F261E502022205009E1D6
:104E0A00050E1F5CD8A00CEF27F00EEF27F010EF6D
:104E1A0027F0000E276E27C023F0246A235024109F
:104E2A00D8A41AEF27F01CEF27F0DDEF26F026EFC3
:104E3A0027F0000E226E010E216E1B4A1C2A5FEF1C
:104E4A0027F01BC0F6FF1CC0F7FF000EF86E080023
:104E5A00F5501D6E1E6A1E50000AD8B437EF27F0AF
:104E6A005FEF27F01D502B0AD8B422EF27F0060A6D
:104E7A00D8B41EEF27F05FEF27F028C014F029C03E
:104E8A0015F0000E176E0A0E166E51EC31F01BC0AB
:104E9A00F6FF1CC0F7FF000EF86E0800F550145E0E
:104EAA00000E155A300E1424286E000E1520296E95
:104EBA0022EF27F0D00E1D6EFF0E1E6E1BC0F6FFEE
:104ECA001CC0F7FF000EF86E0800F5501F6E206A2E
:104EDA001D501F261E50202220500AE10A0E1F5C78
:104EEA00D8A07AEF27F07DEF27F0010E7EEF27F0AA
:104EFA00000E256E266A25502610D8A487EF27F0C3
:104F0A0089EF27F042EF27F021502210D8A490EF22
:104F1A0027F092EF27F0A0EF27F028C01DF029C054
:104F2A001EF01D1E1E1E1D4A1E2A1DC01BF01EC07D
:104F3A001CF0A4EF27F028C01BF029C01CF01200B7
:104F4A009EA0AAEF27F0ACEF27F0BDEF27F0800E66
:104F5A00BD60B2EF27F0B4EF27F0BDEF27F0422A89
:104F6A00010E0101BA27000EBB23BC23BD239E906C
:104F7A0042504B18D8B4C4EF27F0C6EF27F0C9EF58
:104F8A0027F0A49263EF28F08CA2CEEF27F0D2EF9D
:104F9A0027F0016A012AD3EF27F0016A01468C50F3
:104FAA000118FD0B01188C6E8CA2DEEF27F0E0EFE2
:104FBA0027F01DEF28F0BDCF01F0026A036A046AE8
:104FCA0003C004F002C003F001C002F0016A4BC042
:104FDA0005F0066A076A086A06C008F005C007F005
:104FEA00066A056A01500524096E025006200A6EF7
:104FFA00035007200B6E045008200C6EBC50092485
:10500A000D6E000E0A200E6E000E0B200F6E000EA3
:10501A000C20106E47500D2648500E2249500F2280
:10502A004A5010220DC0BCFF0EC0BDFF0FC04BF08E
:10503A008CB222EF28F024EF28F062EF28F0BDCFDF
:10504A0001F0026A036A046A03C004F002C003F0B2
:10505A0001C002F0016A4BC005F0066A076A086AD5
:10506A0006C008F005C007F0066A056A0150052463
:10507A00096E025006200A6E035007200B6E045078
:10508A0008200C6EBC5009240D6E000E0A200E6E0C
:10509A00000E0B200F6E000E0C20106E0101CC5179
:1050AA000D26CD510E22CE510F22CF5110220DC006
:1050BA00BCFF0EC0BDFF0FC04BF0A4921200A1A20C
:1050CA0069EF28F06BEF28F075EF28F0800E796011
:1050DA0071EF28F073EF28F075EF28F0412AA192BA
:1050EA0041500001FE19D8B47DEF28F07FEF28F077
:1050FA0082EF28F0B7921CEF29F08DA287EF28F0F3
:10510A008BEF28F0016A012A8CEF28F0016A014628
:10511A008D500118FD0B01188D6E8DA297EF28F0A6
:10512A0099EF28F0D6EF28F079CF01F0026A036AE6
:10513A00046A03C004F002C003F001C002F0016A6D
:10514A00FEC005F0066A076A086A06C008F005C0CC
:10515A0007F0066A056A01500524096E0250062006
:10516A000A6E035007200B6E045008200C6E78500C
:10517A0009240D6E000E0A200E6E000E0B200F6E13
:10518A00000E0C20106E43500D2644500E2245503E
:10519A000F22465010220DC078FF0EC079FF0FC0B3
:1051AA00FEF08DB2DBEF28F0DDEF28F01BEF29F0DF
:1051BA0079CF01F0026A036A046A03C004F002C0EC
:1051CA0003F001C002F0016AFEC005F0066A076A30
:1051DA00086A06C008F005C007F0066A056A0150A9
:1051EA000524096E025006200A6E035007200B6E32
:1051FA00045008200C6E785009240D6E000E0A2007
:10520A000E6E000E0B200F6E000E0C20106E0101A8
:10521A00C8510D26C9510E22CA510F22CB51102254
:10522A000DC078FF0EC079FF0FC0FEF0B7921200D2
:10523A00000E946E000E8B6E000E956E000E8C6E34
:10524A00000E966E000E8D6ED08EF28CF28E020ECD
:10525A00CD6E080EBB6E000E0F012D6F9F90A592AA
:10526A00A3829D8049C04BF0020EB16E080E776E84
:10527A00010E2C6FA292B892B682A08245C0FEF0AF
:10528A00280EC66E000EC56E000EC76E270EC86EBB
:10529A0094869488030E186E080E176E770EE82E01
:1052AA00FED7172EFCD7182EFAD700F0D00EAFEC87
:1052BA0031F0190E77EC31F0070E77EC31F0BFECD4
:1052CA0031F0D00EAFEC31F06B0E77EC31F0010E0D
:1052DA0077EC31F0BFEC31F0D00EAFEC31F01A0EB2
:1052EA0077EC31F0000E77EC31F0BFEC31F0D00EF4
:1052FA00AFEC31F01C0E77EC31F0000E77EC31F0A8
:10530A00BFEC31F0D00EAFEC31F01B0E77EC31F080
:10531A00180E77EC31F0BFEC31F0D00EAFEC31F073
:10532A00560E77EC31F0010E77EC31F0BFEC31F02C
:10533A00948E949C6596658C0C0EAF6E000ED46E9E
:10534A00AC94AC9CAC8AAB8EAB889F9A9D8AD58E66
:10535A00CD80B180120000017F358035376E37501D
:10536A00D8A4BAEF29F0BCEF29F0C6EF29F0000E55
:10537A007D6F000E7E6F000E7F6F000E806F33EF21
:10538A002AF07DC081F07EC082F07FC083F080C0A9
:10539A0084F0200ED6EF29F0D890843383338233F9
:1053AA008133E82ED1EF29F08151366E7F8FFF0EBF
:1053BA007D17FF0E7E17FF0E7F17000E8017960EC1
:1053CA00375E37BEEDEF29F0EBEF29F003EF2AF055
:1053DA003750800A970FD8B0F5EF29F0F7EF29F088
:1053EA00F9EF29F0BCEF29F0D89080337F337E3370
:1053FA007D33373EF9EF29F01BEF2AF01F0E376491
:10540A0009EF2AF00BEF2AF013EF2AF0BCEF29F08C
:10541A00D8907D377E377F37803737063750D8A404
:10542A0019EF2AF01BEF2AF00DEF2AF03650D8B404
:10543A0021EF2AF023EF2AF02BEF2AF0801F7F1F9B
:10544A007E1F7D6D000E7E237F2380237DC07DF02D
:10545A007EC07EF07FC07FF080C080F01200000E18
:10546A002E1400016D6F000E2F146E6F800E301413
:10547A006F6F7F0E3114706F6D516E116F11701155
:10548A00D8A44AEF2AF04CEF2AF054EF2AF0000E83
:10549A002E6E000E2F6E000E306E000E316E000E54
:1054AA0032146D6F000E33146E6F800E34146F6FEA
:1054BA007F0E3514706F6D516E116F117011D8A473
:1054CA0069EF2AF06BEF2AF073EF2AF0000E326EC2
:1054DA00000E336E000E346E000E356E31AE78EF6C
:1054EA002AF07AEF2AF083EF2AF02E6C2F1ED8B01A
:1054FA002F2A301ED8B0302A800E315635AE88EFAA
:10550A002AF08AEF2AF093EF2AF0326C331ED8B0D1
:10551A00332A341ED8B0342A800E3556000E2E1A7D
:10552A00000E2F1A000E301A800E311A000E321A8F
:10553A00000E331A000E341A800E351A32502E5CC1
:10554A0033502F583450305835503158D8B0B0EF06
:10555A002AF0B2EF2AF0B5EF2AF0D890B6EF2AF087
:10556A00D8801200AAC11EF0ABC11FF0ACC120F056
:10557A00ADC121F014C01EF015C01FF016C020F0F6
:10558A0017C021F01EC018F01FC019F020C01AF071
:10559A0021C01BF0180ED7EF2AF0D8901B321A320E
:1055AA0019321832E82ED2EF2AF018501C6E1D6AF2
:1055BA001C501D10D8A4E4EF2AF0E6EF2AF006EFFB
:1055CA002BF0D8901E34186E1F34196E20341A6EC0
:1055DA0021341B6E185019101A101B10D8A4F8EF9A
:1055EA002AF0FAEF2AF000EF2BF0000E156E020EE9
:1055FA00146E35EF2BF0000E156E030E146E35EF98
:10560A002BF01C281D10D8A40DEF2BF00FEF2BF058
:10561A0031EF2BF01EC018F01FC019F020C01AF08D
:10562A0021C01BF0090ED890183619361A361B36C7
:10563A00E82E18EF2BF0185019101A101B10D8B4B6
:10564A0029EF2BF02CEF2BF0010E2DEF2BF0000E93
:10565A00146E156A35EF2BF0000E156E040E146EDB
:10566A00120014C01BF015C01CF016C01DF017C0A4
:10567A001EF01806D8A01906182806E11928D8A479
:10568A0049EF2BF04BEF2BF058EF2BF0000E156E75
:10569A00000E146EA6EF2BF01B4A1C2A1D4A1E2A66
:1056AA001806D8A019061BC0D9FF1CC0DAFFDF50A4
:1056BA00D8B462EF2BF064EF2BF093EF2BF01DC000
:1056CA00F6FF1EC0F7FF000EF86E0800F55000093D
:1056DA00D8B472EF2BF074EF2BF093EF2BF0185035
:1056EA001910D8B47BEF2BF07DEF2BF093EF2BF052
:1056FA001BC0D9FF1CC0DAFFDF501A6E1DC0F6FFAF
:10570A001EC0F7FF000EF86E0800F5501A18D8B43C
:10571A0091EF2BF093EF2BF051EF2BF01BC0D9FF39
:10572A001CC0DAFFDF501A6E1DC0F6FF1EC0F7FF5D
:10573A00000EF86E0800F5501A5C146E156AD8A0AF
:10574A001506120016501710D8B4AEEF2BF0B0EFB2
:10575A002BF0B9EF2BF016501710D8A4B7EF2BF097
:10576A00B9EF2BF0BEEF2BF01450C8EC31F00BEF71
:10577A002CF020EE04F01650D9261750DA22DE500B
:10578A00DE10D8B4CBEF2BF0CDEF2BF0E8EF2BF0F7
:10579A0020EE04F01650D9261750DA2210EE02F045
:1057AA001650E1261750E222DE50E65CE650800AE7
:1057BA001C6EDE50800A1C58D8B0E6EF2BF0E8EFDA
:1057CA002BF00BEF2CF020EE02F01650D9261750D2
:1057DA00DA22DECF18F0DDCF19F016C0D9FF17C0D4
:1057EA00DAFFDECF1AF0DDCF1BF018501A24D96E7B
:1057FA0019501B20DA6E14C0DFFF20EE02F016509B
:10580A00D9261750DA22DE2A000EDD221200000EF7
:10581A00196E17BE15EF2CF013EF2CF01BEF2CF0BE
:10582A00166C171ED8B0172A010E196E15BE22EF74
:10583A002CF020EF2CF028EF2CF0146C151ED8B0A9
:10584A00152A010E191A000E1B6E000E1A6E16503A
:10585A001710D8B433EF2CF035EF2CF05DEF2CF0A5
:10586A00010E186E3DEF2CF0D89016361736182A0E
:10587A0017AE42EF2CF044EF2CF039EF2CF0D89011
:10588A001A361B361650145C17501558D8A050EF0C
:10589A002CF052EF2CF057EF2CF01650145E1750E4
:1058AA00155A1A80D89017321632182E44EF2CF057
:1058BA001950D8B463EF2CF065EF2CF069EF2CF097
:1058CA001A6C1B1ED8B01B2A1AC014F01BC015F084
:1058DA0012003CA073EF2CF075EF2CF07FEF2CF048
:1058EA0026C01DF027C01EF024C01FF025C020F0DE
:1058FA0085EC30F029BE84EF2CF086EF2CF08CEF8B
:10590A002CF028C02DF029C02EF090EF2CF0000EBC
:10591A002E6E000E2D6E000E2C6E000E2B6EA2EF58
:10592A002CF0000E156E200E146E24C016F025C041
:10593A0017F0A7EC2BF02B4A2C2A2D502B5C2C505D
:10594A00800A2A6E2E50800A2A58D8A0AFEF2CF06F
:10595A00B1EF2CF096EF2CF03CB0B6EF2CF0B8EF8C
:10596A002CF0C2EF2CF026C01DF027C01EF024C078
:10597A001FF025C020F085EC30F026C014F027C0B7
:10598A0015F01BEC31F02D501424246E2E501520E6
:10599A00256E1200000E196E15BED8EF2CF0D6EF48
:1059AA002CF0DEEF2CF0146C151ED8B0152A010E5F
:1059BA00196E17BEE5EF2CF0E3EF2CF0E9EF2CF0AF
:1059CA00166C171ED8B0172A16501710D8B4F0EF55
:1059DA002CF0F2EF2CF016EF2DF0010E186EFAEF04
:1059EA002CF0D89016361736182A17AEFFEF2CF07F
:1059FA0001EF2DF0F6EF2CF01650145C17501558E5
:105A0A00D8A00AEF2DF00CEF2DF010EF2DF0165064
:105A1A00145E1750155AD89017321632182E01EF05
:105A2A002DF01950D8B41CEF2DF01EEF2DF022EFF7
:105A3A002DF0146C151ED8B0152A14C014F015C018
:105A4A0015F01200000E14141C6E000E15141D6EB3
:105A5A00800E16141E6E7F0E17141F6E1C501D101A
:105A6A001E101F10D8A43CEF2DF03EEF2DF046EF8C
:105A7A002DF0000E146E000E156E000E166E000E3E
:105A8A00176E000E18141C6E000E19141D6E800E6F
:105A9A001A141E6E7F0E1B141F6E1C501D101E1032
:105AAA001F10D8A45BEF2DF05DEF2DF065EF2DF000
:105ABA00000E186E000E196E000E1A6E000E1B6E86
:105ACA00185014180FE1195015180CE11A5016182D
:105ADA0009E11B501718D8B475EF2DF077EF2DF0A8
:105AEA007AEF2DF0D8907BEF2DF0D88012000001CC
:105AFA00865109E1B50E855DD8A086EF2DF088EFB5
:105B0A002DF08CEF2DF0000E866FB40E856F43C01A
:105B1A008FF044C090F085C021F086C022F0000EBC
:105B2A00246E000E236E000E266EB40E256E070E2E
:105B3A00286ED00E276E250E2A6E800E296E74EC02
:105B4A002EF021C043F022C044F0456A466A0001A3
:105B5A008F51876F9051886F896B8A6B8751435C2D
:105B6A008B6F885144588C6F895145588D6F8A5173
:105B7A0046588E6F8B510101C85F00018C5101019B
:105B8A00C95B00018D510101CA5B00018E510101FF
:105B9A00CB5B12000001865109E1B50E855DD8A0E4
:105BAA00D9EF2DF0DBEF2DF0DFEF2DF0000E866F31
:105BBA00B40E856F47C08FF048C090F085C021F0C1
:105BCA0086C022F0000E246E000E236E000E266E92
:105BDA00B40E256E070E286ED00E276E250E2A6E7D
:105BEA00800E296E74EC2EF021C047F022C048F0D6
:105BFA00496A4A6A00018F51876F9051886F896B91
:105C0A008A6B8751475C8B6F885148588C6F8951D2
:105C1A0049588D6F8A514A588E6F8B510101CC5F5A
:105C2A0000018C510101CD5B00018D510101CE5B58
:105C3A0000018E510101CF5B1200000E1C6E000E96
:105C4A001D6E000E1E6E000E1F6E185019101A10CF
:105C5A001B10D8B433EF2EF035EF2EF06BEF2EF089
:105C6A00010E206E3FEF2EF0D890183619361A36EC
:105C7A001B36202A1BAE44EF2EF046EF2EF039EFEA
:105C8A002EF0D8901C361D361E361F361850145C5E
:105C9A00195015581A5016581B501758D8A058EFB3
:105CAA002EF05AEF2EF063EF2EF01850145E1950B2
:105CBA00155A1A50165A1B50175A1C80D8901B3264
:105CCA001A3219321832202E46EF2EF01CC014F068
:105CDA001DC015F01EC016F01FC017F01200235089
:105CEA00215C316E24502258326E31C014F032C019
:105CFA0015F0166A176A2750295C186E28502A5818
:105D0A00196E1A6AD8A01A061A501B6E24EC2FF0C4
:105D1A0014C02DF015C02EF016C02FF017C030F0A9
:105D2A002DC014F02EC015F02FC016F030C017F099
:105D3A002350255C2B6E245026582C6E2BC018F04D
:105D4A002CC019F01A6A1B6A22EC2EF014C033F028
:105D5A0015C034F027503324216E28503420226E87
:105D6A001200760EF66E630EF76E000EF86E01EEF6
:105D7A00C8F010EE08F00900F5CFEEFFE550E1504B
:105D8A00FAE16E0EF66E630EF76E000EF86E00EE16
:105D9A0043F010EE08F00900F5CFEEFFE550E150B0
:105DAA00FAE102EE00F0500EEE6AE806FDE101EEBD
:105DBA00A2F0260EEE6AE806FDE100EE38F00B0EC0
:105DCA00EE6AE806FDE14C904C92000159EF2FF083
:105DDA00FAC00CF1FBC00DF1000E0101BF6F000EFD
:105DEA00BE6F0FEF2FF0F8C0EEF0F9C0EFF00C0E17
:105DFA000001F06F010EF16FFCC0F2F0FDC0F3F08C
:105E0A00B8EC1EF00001EE510101BE270001EF516E
:105E1A000101BF230CC1F6FF0DC1F7FF000EF86E9A
:105E2A000800F5500009D8A41DEF2FF01FEF2FF03E
:105E3A00F8EF2EF0BEC1F8F0BFC1F9F01200000E63
:105E4A001C6E000E1D6E000E1E6E000E1F6E14A03C
:105E5A0031EF2FF033EF2FF03BEF2FF018501C26C5
:105E6A0019501D221A501E221B501F22D890183674
:105E7A0019361A361B36D8901732163215321432A2
:105E8A001450151016101710D8A44EEF2FF050EF1B
:105E9A002FF02CEF2FF01CC014F01DC015F01EC0FF
:105EAA0016F01FC017F012001DEC29F0000E0001B9
:105EBA00866F2D0E856FCFEC2DF0000E0001866FD8
:105ECA002D0E856F7CEC2DF0000E0101A16FB40E32
:105EDA00A06F9DEC0EF0020E01019F6F040E9E6FE3
:105EEA00BA0EE82EFED79E2FFCD79F2FFAD700F0C6
:105EFA000101A007D8A0A107A1BF88EF2FF086EF64
:105F0A002FF06EEF2FF069EF2FF051EF00F0BF0E78
:105F1A001C6EFF0E1D6E1AC01EF01BC01FF01C5017
:105F2A001E261D501F221F500AE11A0E1E5CD8A001
:105F3A00A1EF2FF0A4EF2FF0010EA5EF2FF0000E26
:105F4A00206E216A20502110D8B4AEEF2FF0B0EFA6
:105F5A002FF0B7EF2FF0200E1A101A6E1B501B6E7F
:105F6A00BBEF2FF01AC01AF01BC01BF0120016C0AC
:105F7A001AF017C01BF014C01CF015C01DF01A50FF
:105F8A00186E1B50196E1A4A1B2A18C0F6FF19C040
:105F9A00F7FF000EF86E1CC0D9FF1DC0DAFF1C4ABD
:105FAA001D2A0F0EF76403D00800F55005D0F6CF6E
:105FBA00E1FFF7CFE2FFE750DF6EDF50D8A4E8EF4A
:105FCA002FF0EAEF2FF0C4EF2FF01200120E0101AA
:105FDA00166F010E176F0EC118F10FC119F1000EDD
:105FEA001B6F000E1A6F000E1D6F000E1C6F180E2D
:105FFA000001F86F010EF96F10C1FAF011C1FBF040
:10600A00160EFC6F010EFD6FEDEC2EF001011A5118
:10601A000E25D96E1B510F21DA6E000EDF6E1200AB
:10602A00010E1A6E200E14181510D8B41FEF30F096
:10603A0021EF30F03AEF30F0F70E166EFF0E176EC2
:10604A0014C018F015C019F0165018261750192246
:10605A00195009E1050E185CD8A036EF30F038EF78
:10606A0030F03AEF30F0000E1A6E1AC014F0156ACA
:10607A001200000E0001791B000E7A1B000E7B1B1A
:10608A00800E7C1B75C02EF076C02FF077C030F0E2
:10609A0078C031F079C032F07AC033F07BC034F086
:1060AA007CC035F057EC1CF02EC075F02FC076F08E
:1060BA0030C077F031C078F01200146EC586C7A0E0
:1060CA0069EF30F06BEF30F064EF30F0C9CF15F0C4
:1060DA001450D8A473EF30F075EF30F079EF30F048
:1060EA009BEC31F07BEF30F091EC31F09EA680EF23
:1060FA0030F082EF30F07BEF30F09E9615501200B0
:10610A00000E236E000E226E96EF30F021C014F0BE
:10611A00156A1FC016F020C017F0A7EC2BF0224A10
:10612A00232A22501D24D96E23501E20DA6EDF50F6
:10613A00216E2150D8A4A4EF30F0A6EF30F08BEFF7
:10614A0030F01200000E186E000E176EB8EF30F025
:10615A0017501524D96E18501620DA6EDF5086ECC7
:10616A0031F0174A182A17501524D96E18501620DC
:10617A00DA6EDF50D8A4C4EF30F0C6EF30F0ADEFDE
:10618A0030F01200BF0E166EFF0E176E14C018F014
:10619A0015C019F0165018261750192219500AE17D
:1061AA001A0E185CD8A0DCEF30F0DFEF30F0010EE9
:1061BA00E0EF30F0000E146E156A1200D00E166E63
:1061CA00FF0E176E14C018F015C019F016501826D5
:1061DA001750192219500AE10A0E185CD8A0F8EFD4
:1061EA0030F0FBEF30F0010EFCEF30F0000E146ED1
:1061FA00156A12001450151016101710D8B408EFAB
:10620A0031F00AEF31F012EF31F0000E141A000EDD
:10621A00151A000E161A800E171A14C014F015C09B
:10622A0015F016C016F017C017F0120014C016F0B9
:10623A0015C017F023EF31F0144A152A14C0D9FFFC
:10624A0015C0DAFFDF50D8A42DEF31F02FEF31F06F
:10625A0021EF31F01650145C146E17501558156E54
:10626A001200A6C19AF0A7C19BF0A8C19CF0A9C1CF
:10627A009DF096C09AF097C09BF098C09CF099C088
:10628A009DF000019D9F9AC096F09BC097F09CC01C
:10629A0098F09DC099F0120014501602F3CF18F02E
:1062AA00F4CF19F014501702F3501926155016029C
:1062BA00F350192618C014F019C015F01200C7B40B
:1062CA0069EF31F06BEF31F064EF31F0C5CF14F0C4
:1062DA001F0E1416D8A474EF31F076EF31F064EF84
:1062EA0031F01200156E64EC31F015C0C9FF9EA69C
:1062FA0081EF31F083EF31F07CEF31F09E96C5509B
:10630A001200146E9EA88CEF31F08EEF31F087EFF9
:10631A0031F014C0ADFF1200C58AC588C5B898EF20
:10632A0031F09AEF31F093EF31F01200C59AC58837
:10633A00C5B8A2EF31F0A4EF31F09DEF31F01200B1
:10634A00422A010E0101BA27000EBB23BC23BD233A
:10635A009E901200166E64EC31F0C580165077ECF0
:10636A0031F01200A00F0000A00F0000E028010089
:10637A00E028010064EC31F0C5841200412AA192A0
:08638A0012004C9211001200F8
:020000040020DA
:08000000FFFFFFFFFFFFFFFF00
:020000040030CA
:0E0000001D03727CF98B91FFFFC0FFE0FF40F3
:00000001FF
