:040000003DEF00F0E0
:0600080016825EEF01F01C
:100018001680D8CF05F0E8CF06F0E0CF07F0F3CF91
:1000280008F0F4CF09F0D8CF15F0146EE0CF13F034
:10003800F2A421EF00F023EF00F02CEF00F011C044
:1000480001F012C002F03FEC00F0F2941CEF00F057
:1000580015C0D8FF145013C0E0FF09C0F4FF08C052
:10006800F3FF07C0E0FF06C0E8FF05C0D8FF169001
:1000780010001CEF01F0000E046E000E036E8CB22F
:1000880048EF00F04AEF00F05CEF00F0080ED56E84
:100098000150F10DF350F00FD76E0150600DF35081
:1000A800600FD66E000E046E010E036E8C82D58E24
:1000B8008CA261EF00F063EF00F07AEF00F00350DC
:1000C8000410D8A46AEF00F06CEF00F07AEF00F0AB
:1000D800000ED56E01500F0DF3506B0FD76E015007
:1000E800A00DF350900FD66E8C92D58E120055EC61
:1000F80001F0C8EC00F0000E126E000E116E150E25
:10010800106E4B0E0F6EBE0EE82EFED70F2EFCD7CC
:10011800102EFAD700D0000E126E010E116E150EB9
:10012800106E4B0E0F6EBE0EE82EFED70F2EFCD7AC
:10013800102EFAD700D026EC01F07FEF00F03DEF4B
:1001480000F00A6EC586C7A0ACEF00F0AEEF00F075
:10015800A7EF00F0C9CF0BF00A50D8A4B6EF00F013
:10016800B8EF00F0BCEF00F03AEC01F0BEEF00F0A1
:1001780030EC01F09EA6C3EF00F0C5EF00F0BEEF33
:1001880000F09E960B501200030E0E6E080E0D6EB8
:10019800770EE82EFED70D2EFCD70E2EFAD700F0DC
:1001A80011EC01F0280E4DEC01F0120EF5EC00F008
:1001B800030EF5EC00F05AEC01F01200C7B4E7EFBB
:1001C80000F0E9EF00F0E2EF00F0C5CF0AF01F0EF3
:1001D8000A16D8A4F2EF00F0F4EF00F0E2EF00F016
:1001E80012000B6EE2EC00F00BC0C9FF9EA6FFEFF9
:1001F80000F001EF01F0FAEF00F09E96C5501200F2
:10020800D08EF28CF28EF194F28A080ED56EF00E32
:10021800D76E600ED66ED58E1200280EC66E000EF2
:10022800C56E000EC76E270EC86E9486948812009D
:10023800156A146A136A126A116A169016920001F6
:100248007BEF00F0280E4DEC01F00D0EF5EC00F000
:10025800000EA5EC00F01200C58AC588C5B837EFB6
:1002680001F039EF01F032EF01F01200C59AC588AC
:10027800C5B841EF01F043EF01F03CEF01F0120087
:10028800000E956E000E8C6E000E966E000E8D6E32
:1002980012000C6EE2EC00F0C5800C50F5EC00F09A
:1002A800120044EC01F004EC01F01200E2EC00F062
:0802B800C5841200169211002A
:020000040020DA
:08000000FFFFFFFFFFFFFFFF00
:020000040030CA
:0E0000001D03727CF98B91FFFFC0FFE0FF40F3
:00000001FF
